{
	"contracts/exam_unit.sol": {
		"Unit": {
			"abi": [
				{
					"inputs": [],
					"name": "decmyInt256",
					"outputs": [],
					"stateMutability": "nonpayable",
					"type": "function"
				},
				{
					"inputs": [],
					"name": "incInt8",
					"outputs": [],
					"stateMutability": "nonpayable",
					"type": "function"
				},
				{
					"inputs": [],
					"name": "incmyInt",
					"outputs": [],
					"stateMutability": "nonpayable",
					"type": "function"
				},
				{
					"inputs": [],
					"name": "myInt",
					"outputs": [
						{
							"internalType": "int256",
							"name": "",
							"type": "int256"
						}
					],
					"stateMutability": "view",
					"type": "function"
				},
				{
					"inputs": [],
					"name": "myInt256",
					"outputs": [
						{
							"internalType": "uint256",
							"name": "",
							"type": "uint256"
						}
					],
					"stateMutability": "view",
					"type": "function"
				},
				{
					"inputs": [],
					"name": "myInt8",
					"outputs": [
						{
							"internalType": "uint8",
							"name": "",
							"type": "uint8"
						}
					],
					"stateMutability": "view",
					"type": "function"
				},
				{
					"inputs": [
						{
							"internalType": "uint256",
							"name": "i",
							"type": "uint256"
						}
					],
					"name": "setInt256",
					"outputs": [],
					"stateMutability": "nonpayable",
					"type": "function"
				}
			],
			"devdoc": {
				"kind": "dev",
				"methods": {},
				"version": 1
			},
			"evm": {
				"assembly": "    /* \"contracts/exam_unit.sol\":71:431  contract Unit{... */\n  mstore(0x40, 0x80)\n    /* \"contracts/exam_unit.sol\":142:145  250 */\n  0xfa\n    /* \"contracts/exam_unit.sol\":119:145  uint8 public  myInt8 = 250 */\n  0x01\n  exp(0x0100, 0x00)\n  dup2\n  sload\n  dup2\n  0xff\n  mul\n  not\n  and\n  swap1\n  dup4\n  0xff\n  and\n  mul\n  or\n  swap1\n  sstore\n  pop\n    /* \"contracts/exam_unit.sol\":171:174  -10 */\n  0xfffffffffffffffffffffffffffffffffffffffffffffffffffffffffffffff6\n    /* \"contracts/exam_unit.sol\":151:174  int public  myInt = -10 */\n  0x02\n  sstore\n    /* \"contracts/exam_unit.sol\":71:431  contract Unit{... */\n  callvalue\n  dup1\n  iszero\n  tag_1\n  jumpi\n  0x00\n  dup1\n  revert\ntag_1:\n  pop\n  dataSize(sub_0)\n  dup1\n  dataOffset(sub_0)\n  0x00\n  codecopy\n  0x00\n  return\nstop\n\nsub_0: assembly {\n        /* \"contracts/exam_unit.sol\":71:431  contract Unit{... */\n      mstore(0x40, 0x80)\n      callvalue\n      dup1\n      iszero\n      tag_1\n      jumpi\n      0x00\n      dup1\n      revert\n    tag_1:\n      pop\n      jumpi(tag_2, lt(calldatasize, 0x04))\n      shr(0xe0, calldataload(0x00))\n      dup1\n      0x377172b9\n      gt\n      tag_10\n      jumpi\n      dup1\n      0x377172b9\n      eq\n      tag_6\n      jumpi\n      dup1\n      0x4998f0dd\n      eq\n      tag_7\n      jumpi\n      dup1\n      0x6e92c39e\n      eq\n      tag_8\n      jumpi\n      dup1\n      0xd5bd52b7\n      eq\n      tag_9\n      jumpi\n      jump(tag_2)\n    tag_10:\n      dup1\n      0x227ba66f\n      eq\n      tag_3\n      jumpi\n      dup1\n      0x2498ffa7\n      eq\n      tag_4\n      jumpi\n      dup1\n      0x2cb777a6\n      eq\n      tag_5\n      jumpi\n    tag_2:\n      0x00\n      dup1\n      revert\n        /* \"contracts/exam_unit.sol\":310:361  function incmyInt() public {... */\n    tag_3:\n      tag_11\n      tag_12\n      jump\t// in\n    tag_11:\n      stop\n        /* \"contracts/exam_unit.sol\":253:304  function incInt8() public {... */\n    tag_4:\n      tag_13\n      tag_14\n      jump\t// in\n    tag_13:\n      stop\n        /* \"contracts/exam_unit.sol\":151:174  int public  myInt = -10 */\n    tag_5:\n      tag_15\n      tag_16\n      jump\t// in\n    tag_15:\n      mload(0x40)\n      tag_17\n      swap2\n      swap1\n      tag_18\n      jump\t// in\n    tag_17:\n      mload(0x40)\n      dup1\n      swap2\n      sub\n      swap1\n      return\n        /* \"contracts/exam_unit.sol\":90:113  uint256 public myInt256 */\n    tag_6:\n      tag_19\n      tag_20\n      jump\t// in\n    tag_19:\n      mload(0x40)\n      tag_21\n      swap2\n      swap1\n      tag_22\n      jump\t// in\n    tag_21:\n      mload(0x40)\n      dup1\n      swap2\n      sub\n      swap1\n      return\n        /* \"contracts/exam_unit.sol\":181:247  function setInt256(uint256 i) public {... */\n    tag_7:\n      tag_23\n      0x04\n      dup1\n      calldatasize\n      sub\n      dup2\n      add\n      swap1\n      tag_24\n      swap2\n      swap1\n      tag_25\n      jump\t// in\n    tag_24:\n      tag_26\n      jump\t// in\n    tag_23:\n      stop\n        /* \"contracts/exam_unit.sol\":119:145  uint8 public  myInt8 = 250 */\n    tag_8:\n      tag_27\n      tag_28\n      jump\t// in\n    tag_27:\n      mload(0x40)\n      tag_29\n      swap2\n      swap1\n      tag_30\n      jump\t// in\n    tag_29:\n      mload(0x40)\n      dup1\n      swap2\n      sub\n      swap1\n      return\n        /* \"contracts/exam_unit.sol\":367:424  function decmyInt256() public {... */\n    tag_9:\n      tag_31\n      tag_32\n      jump\t// in\n    tag_31:\n      stop\n        /* \"contracts/exam_unit.sol\":310:361  function incmyInt() public {... */\n    tag_12:\n        /* \"contracts/exam_unit.sol\":347:352  myInt */\n      0x02\n      0x00\n        /* \"contracts/exam_unit.sol\":347:354  myInt++ */\n      dup2\n      sload\n      dup1\n      swap3\n      swap2\n      swap1\n      tag_34\n      swap1\n      tag_35\n      jump\t// in\n    tag_34:\n      swap2\n      swap1\n      pop\n      sstore\n      pop\n        /* \"contracts/exam_unit.sol\":310:361  function incmyInt() public {... */\n      jump\t// out\n        /* \"contracts/exam_unit.sol\":253:304  function incInt8() public {... */\n    tag_14:\n        /* \"contracts/exam_unit.sol\":289:295  myInt8 */\n      0x01\n      0x00\n        /* \"contracts/exam_unit.sol\":289:297  myInt8++ */\n      dup2\n      dup2\n      swap1\n      sload\n      swap1\n      0x0100\n      exp\n      swap1\n      div\n      0xff\n      and\n      dup1\n      swap3\n      swap2\n      swap1\n      tag_37\n      swap1\n      tag_38\n      jump\t// in\n    tag_37:\n      swap2\n      swap1\n      0x0100\n      exp\n      dup2\n      sload\n      dup2\n      0xff\n      mul\n      not\n      and\n      swap1\n      dup4\n      0xff\n      and\n      mul\n      or\n      swap1\n      sstore\n      pop\n      pop\n        /* \"contracts/exam_unit.sol\":253:304  function incInt8() public {... */\n      jump\t// out\n        /* \"contracts/exam_unit.sol\":151:174  int public  myInt = -10 */\n    tag_16:\n      sload(0x02)\n      dup2\n      jump\t// out\n        /* \"contracts/exam_unit.sol\":90:113  uint256 public myInt256 */\n    tag_20:\n      sload(0x00)\n      dup2\n      jump\t// out\n        /* \"contracts/exam_unit.sol\":181:247  function setInt256(uint256 i) public {... */\n    tag_26:\n        /* \"contracts/exam_unit.sol\":239:240  i */\n      dup1\n        /* \"contracts/exam_unit.sol\":228:236  myInt256 */\n      0x00\n        /* \"contracts/exam_unit.sol\":228:240  myInt256 = i */\n      dup2\n      swap1\n      sstore\n      pop\n        /* \"contracts/exam_unit.sol\":181:247  function setInt256(uint256 i) public {... */\n      pop\n      jump\t// out\n        /* \"contracts/exam_unit.sol\":119:145  uint8 public  myInt8 = 250 */\n    tag_28:\n      0x01\n      0x00\n      swap1\n      sload\n      swap1\n      0x0100\n      exp\n      swap1\n      div\n      0xff\n      and\n      dup2\n      jump\t// out\n        /* \"contracts/exam_unit.sol\":367:424  function decmyInt256() public {... */\n    tag_32:\n        /* \"contracts/exam_unit.sol\":407:415  myInt256 */\n      0x00\n      dup1\n        /* \"contracts/exam_unit.sol\":407:417  myInt256-- */\n      dup2\n      sload\n      dup1\n      swap3\n      swap2\n      swap1\n      tag_41\n      swap1\n      tag_42\n      jump\t// in\n    tag_41:\n      swap2\n      swap1\n      pop\n      sstore\n      pop\n        /* \"contracts/exam_unit.sol\":367:424  function decmyInt256() public {... */\n      jump\t// out\n        /* \"#utility.yul\":7:83   */\n    tag_43:\n        /* \"#utility.yul\":43:50   */\n      0x00\n        /* \"#utility.yul\":72:77   */\n      dup2\n        /* \"#utility.yul\":61:77   */\n      swap1\n      pop\n        /* \"#utility.yul\":7:83   */\n      swap2\n      swap1\n      pop\n      jump\t// out\n        /* \"#utility.yul\":89:204   */\n    tag_44:\n        /* \"#utility.yul\":174:197   */\n      tag_58\n        /* \"#utility.yul\":191:196   */\n      dup2\n        /* \"#utility.yul\":174:197   */\n      tag_43\n      jump\t// in\n    tag_58:\n        /* \"#utility.yul\":169:172   */\n      dup3\n        /* \"#utility.yul\":162:198   */\n      mstore\n        /* \"#utility.yul\":89:204   */\n      pop\n      pop\n      jump\t// out\n        /* \"#utility.yul\":210:428   */\n    tag_18:\n        /* \"#utility.yul\":301:305   */\n      0x00\n        /* \"#utility.yul\":339:341   */\n      0x20\n        /* \"#utility.yul\":328:337   */\n      dup3\n        /* \"#utility.yul\":324:342   */\n      add\n        /* \"#utility.yul\":316:342   */\n      swap1\n      pop\n        /* \"#utility.yul\":352:421   */\n      tag_60\n        /* \"#utility.yul\":418:419   */\n      0x00\n        /* \"#utility.yul\":407:416   */\n      dup4\n        /* \"#utility.yul\":403:420   */\n      add\n        /* \"#utility.yul\":394:400   */\n      dup5\n        /* \"#utility.yul\":352:421   */\n      tag_44\n      jump\t// in\n    tag_60:\n        /* \"#utility.yul\":210:428   */\n      swap3\n      swap2\n      pop\n      pop\n      jump\t// out\n        /* \"#utility.yul\":434:511   */\n    tag_45:\n        /* \"#utility.yul\":471:478   */\n      0x00\n        /* \"#utility.yul\":500:505   */\n      dup2\n        /* \"#utility.yul\":489:505   */\n      swap1\n      pop\n        /* \"#utility.yul\":434:511   */\n      swap2\n      swap1\n      pop\n      jump\t// out\n        /* \"#utility.yul\":517:635   */\n    tag_46:\n        /* \"#utility.yul\":604:628   */\n      tag_63\n        /* \"#utility.yul\":622:627   */\n      dup2\n        /* \"#utility.yul\":604:628   */\n      tag_45\n      jump\t// in\n    tag_63:\n        /* \"#utility.yul\":599:602   */\n      dup3\n        /* \"#utility.yul\":592:629   */\n      mstore\n        /* \"#utility.yul\":517:635   */\n      pop\n      pop\n      jump\t// out\n        /* \"#utility.yul\":641:863   */\n    tag_22:\n        /* \"#utility.yul\":734:738   */\n      0x00\n        /* \"#utility.yul\":772:774   */\n      0x20\n        /* \"#utility.yul\":761:770   */\n      dup3\n        /* \"#utility.yul\":757:775   */\n      add\n        /* \"#utility.yul\":749:775   */\n      swap1\n      pop\n        /* \"#utility.yul\":785:856   */\n      tag_65\n        /* \"#utility.yul\":853:854   */\n      0x00\n        /* \"#utility.yul\":842:851   */\n      dup4\n        /* \"#utility.yul\":838:855   */\n      add\n        /* \"#utility.yul\":829:835   */\n      dup5\n        /* \"#utility.yul\":785:856   */\n      tag_46\n      jump\t// in\n    tag_65:\n        /* \"#utility.yul\":641:863   */\n      swap3\n      swap2\n      pop\n      pop\n      jump\t// out\n        /* \"#utility.yul\":950:1067   */\n    tag_48:\n        /* \"#utility.yul\":1059:1060   */\n      0x00\n        /* \"#utility.yul\":1056:1057   */\n      dup1\n        /* \"#utility.yul\":1049:1061   */\n      revert\n        /* \"#utility.yul\":1196:1318   */\n    tag_50:\n        /* \"#utility.yul\":1269:1293   */\n      tag_70\n        /* \"#utility.yul\":1287:1292   */\n      dup2\n        /* \"#utility.yul\":1269:1293   */\n      tag_45\n      jump\t// in\n    tag_70:\n        /* \"#utility.yul\":1262:1267   */\n      dup2\n        /* \"#utility.yul\":1259:1294   */\n      eq\n        /* \"#utility.yul\":1249:1312   */\n      tag_71\n      jumpi\n        /* \"#utility.yul\":1308:1309   */\n      0x00\n        /* \"#utility.yul\":1305:1306   */\n      dup1\n        /* \"#utility.yul\":1298:1310   */\n      revert\n        /* \"#utility.yul\":1249:1312   */\n    tag_71:\n        /* \"#utility.yul\":1196:1318   */\n      pop\n      jump\t// out\n        /* \"#utility.yul\":1324:1463   */\n    tag_51:\n        /* \"#utility.yul\":1370:1375   */\n      0x00\n        /* \"#utility.yul\":1408:1414   */\n      dup2\n        /* \"#utility.yul\":1395:1415   */\n      calldataload\n        /* \"#utility.yul\":1386:1415   */\n      swap1\n      pop\n        /* \"#utility.yul\":1424:1457   */\n      tag_73\n        /* \"#utility.yul\":1451:1456   */\n      dup2\n        /* \"#utility.yul\":1424:1457   */\n      tag_50\n      jump\t// in\n    tag_73:\n        /* \"#utility.yul\":1324:1463   */\n      swap3\n      swap2\n      pop\n      pop\n      jump\t// out\n        /* \"#utility.yul\":1469:1798   */\n    tag_25:\n        /* \"#utility.yul\":1528:1534   */\n      0x00\n        /* \"#utility.yul\":1577:1579   */\n      0x20\n        /* \"#utility.yul\":1565:1574   */\n      dup3\n        /* \"#utility.yul\":1556:1563   */\n      dup5\n        /* \"#utility.yul\":1552:1575   */\n      sub\n        /* \"#utility.yul\":1548:1580   */\n      slt\n        /* \"#utility.yul\":1545:1664   */\n      iszero\n      tag_75\n      jumpi\n        /* \"#utility.yul\":1583:1662   */\n      tag_76\n      tag_48\n      jump\t// in\n    tag_76:\n        /* \"#utility.yul\":1545:1664   */\n    tag_75:\n        /* \"#utility.yul\":1703:1704   */\n      0x00\n        /* \"#utility.yul\":1728:1781   */\n      tag_77\n        /* \"#utility.yul\":1773:1780   */\n      dup5\n        /* \"#utility.yul\":1764:1770   */\n      dup3\n        /* \"#utility.yul\":1753:1762   */\n      dup6\n        /* \"#utility.yul\":1749:1771   */\n      add\n        /* \"#utility.yul\":1728:1781   */\n      tag_51\n      jump\t// in\n    tag_77:\n        /* \"#utility.yul\":1718:1781   */\n      swap2\n      pop\n        /* \"#utility.yul\":1674:1791   */\n      pop\n        /* \"#utility.yul\":1469:1798   */\n      swap3\n      swap2\n      pop\n      pop\n      jump\t// out\n        /* \"#utility.yul\":1804:1890   */\n    tag_52:\n        /* \"#utility.yul\":1839:1846   */\n      0x00\n        /* \"#utility.yul\":1879:1883   */\n      0xff\n        /* \"#utility.yul\":1872:1877   */\n      dup3\n        /* \"#utility.yul\":1868:1884   */\n      and\n        /* \"#utility.yul\":1857:1884   */\n      swap1\n      pop\n        /* \"#utility.yul\":1804:1890   */\n      swap2\n      swap1\n      pop\n      jump\t// out\n        /* \"#utility.yul\":1896:2008   */\n    tag_53:\n        /* \"#utility.yul\":1979:2001   */\n      tag_80\n        /* \"#utility.yul\":1995:2000   */\n      dup2\n        /* \"#utility.yul\":1979:2001   */\n      tag_52\n      jump\t// in\n    tag_80:\n        /* \"#utility.yul\":1974:1977   */\n      dup3\n        /* \"#utility.yul\":1967:2002   */\n      mstore\n        /* \"#utility.yul\":1896:2008   */\n      pop\n      pop\n      jump\t// out\n        /* \"#utility.yul\":2014:2228   */\n    tag_30:\n        /* \"#utility.yul\":2103:2107   */\n      0x00\n        /* \"#utility.yul\":2141:2143   */\n      0x20\n        /* \"#utility.yul\":2130:2139   */\n      dup3\n        /* \"#utility.yul\":2126:2144   */\n      add\n        /* \"#utility.yul\":2118:2144   */\n      swap1\n      pop\n        /* \"#utility.yul\":2154:2221   */\n      tag_82\n        /* \"#utility.yul\":2218:2219   */\n      0x00\n        /* \"#utility.yul\":2207:2216   */\n      dup4\n        /* \"#utility.yul\":2203:2220   */\n      add\n        /* \"#utility.yul\":2194:2200   */\n      dup5\n        /* \"#utility.yul\":2154:2221   */\n      tag_53\n      jump\t// in\n    tag_82:\n        /* \"#utility.yul\":2014:2228   */\n      swap3\n      swap2\n      pop\n      pop\n      jump\t// out\n        /* \"#utility.yul\":2234:2414   */\n    tag_54:\n        /* \"#utility.yul\":2282:2359   */\n      0x4e487b7100000000000000000000000000000000000000000000000000000000\n        /* \"#utility.yul\":2279:2280   */\n      0x00\n        /* \"#utility.yul\":2272:2360   */\n      mstore\n        /* \"#utility.yul\":2379:2383   */\n      0x11\n        /* \"#utility.yul\":2376:2377   */\n      0x04\n        /* \"#utility.yul\":2369:2384   */\n      mstore\n        /* \"#utility.yul\":2403:2407   */\n      0x24\n        /* \"#utility.yul\":2400:2401   */\n      0x00\n        /* \"#utility.yul\":2393:2408   */\n      revert\n        /* \"#utility.yul\":2420:2651   */\n    tag_35:\n        /* \"#utility.yul\":2458:2461   */\n      0x00\n        /* \"#utility.yul\":2481:2504   */\n      tag_85\n        /* \"#utility.yul\":2498:2503   */\n      dup3\n        /* \"#utility.yul\":2481:2504   */\n      tag_43\n      jump\t// in\n    tag_85:\n        /* \"#utility.yul\":2472:2504   */\n      swap2\n      pop\n        /* \"#utility.yul\":2526:2592   */\n      0x7fffffffffffffffffffffffffffffffffffffffffffffffffffffffffffffff\n        /* \"#utility.yul\":2519:2524   */\n      dup3\n        /* \"#utility.yul\":2516:2593   */\n      sub\n        /* \"#utility.yul\":2513:2616   */\n      tag_86\n      jumpi\n        /* \"#utility.yul\":2596:2614   */\n      tag_87\n      tag_54\n      jump\t// in\n    tag_87:\n        /* \"#utility.yul\":2513:2616   */\n    tag_86:\n        /* \"#utility.yul\":2643:2644   */\n      0x01\n        /* \"#utility.yul\":2636:2641   */\n      dup3\n        /* \"#utility.yul\":2632:2645   */\n      add\n        /* \"#utility.yul\":2625:2645   */\n      swap1\n      pop\n        /* \"#utility.yul\":2420:2651   */\n      swap2\n      swap1\n      pop\n      jump\t// out\n        /* \"#utility.yul\":2657:2824   */\n    tag_38:\n        /* \"#utility.yul\":2694:2697   */\n      0x00\n        /* \"#utility.yul\":2717:2739   */\n      tag_89\n        /* \"#utility.yul\":2733:2738   */\n      dup3\n        /* \"#utility.yul\":2717:2739   */\n      tag_52\n      jump\t// in\n    tag_89:\n        /* \"#utility.yul\":2708:2739   */\n      swap2\n      pop\n        /* \"#utility.yul\":2761:2765   */\n      0xff\n        /* \"#utility.yul\":2754:2759   */\n      dup3\n        /* \"#utility.yul\":2751:2766   */\n      sub\n        /* \"#utility.yul\":2748:2789   */\n      tag_90\n      jumpi\n        /* \"#utility.yul\":2769:2787   */\n      tag_91\n      tag_54\n      jump\t// in\n    tag_91:\n        /* \"#utility.yul\":2748:2789   */\n    tag_90:\n        /* \"#utility.yul\":2816:2817   */\n      0x01\n        /* \"#utility.yul\":2809:2814   */\n      dup3\n        /* \"#utility.yul\":2805:2818   */\n      add\n        /* \"#utility.yul\":2798:2818   */\n      swap1\n      pop\n        /* \"#utility.yul\":2657:2824   */\n      swap2\n      swap1\n      pop\n      jump\t// out\n        /* \"#utility.yul\":2830:3001   */\n    tag_42:\n        /* \"#utility.yul\":2869:2872   */\n      0x00\n        /* \"#utility.yul\":2892:2916   */\n      tag_93\n        /* \"#utility.yul\":2910:2915   */\n      dup3\n        /* \"#utility.yul\":2892:2916   */\n      tag_45\n      jump\t// in\n    tag_93:\n        /* \"#utility.yul\":2883:2916   */\n      swap2\n      pop\n        /* \"#utility.yul\":2938:2942   */\n      0x00\n        /* \"#utility.yul\":2931:2936   */\n      dup3\n        /* \"#utility.yul\":2928:2943   */\n      sub\n        /* \"#utility.yul\":2925:2966   */\n      tag_94\n      jumpi\n        /* \"#utility.yul\":2946:2964   */\n      tag_95\n      tag_54\n      jump\t// in\n    tag_95:\n        /* \"#utility.yul\":2925:2966   */\n    tag_94:\n        /* \"#utility.yul\":2993:2994   */\n      0x01\n        /* \"#utility.yul\":2986:2991   */\n      dup3\n        /* \"#utility.yul\":2982:2995   */\n      sub\n        /* \"#utility.yul\":2975:2995   */\n      swap1\n      pop\n        /* \"#utility.yul\":2830:3001   */\n      swap2\n      swap1\n      pop\n      jump\t// out\n\n    auxdata: 0xa2646970667358221220a51bcbf79368143bad18902d69e43a208803e98acd020e2036d6a6ab2183628d64736f6c634300081a0033\n}\n",
				"bytecode": {
					"linkReferences": {},
					"object": "608060405260fa60015f6101000a81548160ff021916908360ff1602179055507ffffffffffffffffffffffffffffffffffffffffffffffffffffffffffffffff6600255348015604d575f80fd5b5061038b8061005b5f395ff3fe608060405234801561000f575f80fd5b506004361061007b575f3560e01c8063377172b911610059578063377172b9146100b15780634998f0dd146100cf5780636e92c39e146100eb578063d5bd52b7146101095761007b565b8063227ba66f1461007f5780632498ffa7146100895780632cb777a614610093575b5f80fd5b610087610113565b005b61009161012c565b005b61009b610165565b6040516100a891906101bb565b60405180910390f35b6100b961016b565b6040516100c691906101ec565b60405180910390f35b6100e960048036038101906100e49190610233565b610170565b005b6100f3610179565b6040516101009190610279565b60405180910390f35b61011161018b565b005b60025f815480929190610125906102bf565b9190505550565b60015f81819054906101000a900460ff168092919061014a90610306565b91906101000a81548160ff021916908360ff16021790555050565b60025481565b5f5481565b805f8190555050565b60015f9054906101000a900460ff1681565b5f8081548092919061019c9061032e565b9190505550565b5f819050919050565b6101b5816101a3565b82525050565b5f6020820190506101ce5f8301846101ac565b92915050565b5f819050919050565b6101e6816101d4565b82525050565b5f6020820190506101ff5f8301846101dd565b92915050565b5f80fd5b610212816101d4565b811461021c575f80fd5b50565b5f8135905061022d81610209565b92915050565b5f6020828403121561024857610247610205565b5b5f6102558482850161021f565b91505092915050565b5f60ff82169050919050565b6102738161025e565b82525050565b5f60208201905061028c5f83018461026a565b92915050565b7f4e487b71000000000000000000000000000000000000000000000000000000005f52601160045260245ffd5b5f6102c9826101a3565b91507f7fffffffffffffffffffffffffffffffffffffffffffffffffffffffffffffff82036102fb576102fa610292565b5b600182019050919050565b5f6103108261025e565b915060ff820361032357610322610292565b5b600182019050919050565b5f610338826101d4565b91505f820361034a57610349610292565b5b60018203905091905056fea2646970667358221220a51bcbf79368143bad18902d69e43a208803e98acd020e2036d6a6ab2183628d64736f6c634300081a0033",
					"opcodes": "PUSH1 0x80 PUSH1 0x40 MSTORE PUSH1 0xFA PUSH1 0x1 PUSH0 PUSH2 0x100 EXP DUP2 SLOAD DUP2 PUSH1 0xFF MUL NOT AND SWAP1 DUP4 PUSH1 0xFF AND MUL OR SWAP1 SSTORE POP PUSH32 0xFFFFFFFFFFFFFFFFFFFFFFFFFFFFFFFFFFFFFFFFFFFFFFFFFFFFFFFFFFFFFFF6 PUSH1 0x2 SSTORE CALLVALUE DUP1 ISZERO PUSH1 0x4D JUMPI PUSH0 DUP1 REVERT JUMPDEST POP PUSH2 0x38B DUP1 PUSH2 0x5B PUSH0 CODECOPY PUSH0 RETURN INVALID PUSH1 0x80 PUSH1 0x40 MSTORE CALLVALUE DUP1 ISZERO PUSH2 0xF JUMPI PUSH0 DUP1 REVERT JUMPDEST POP PUSH1 0x4 CALLDATASIZE LT PUSH2 0x7B JUMPI PUSH0 CALLDATALOAD PUSH1 0xE0 SHR DUP1 PUSH4 0x377172B9 GT PUSH2 0x59 JUMPI DUP1 PUSH4 0x377172B9 EQ PUSH2 0xB1 JUMPI DUP1 PUSH4 0x4998F0DD EQ PUSH2 0xCF JUMPI DUP1 PUSH4 0x6E92C39E EQ PUSH2 0xEB JUMPI DUP1 PUSH4 0xD5BD52B7 EQ PUSH2 0x109 JUMPI PUSH2 0x7B JUMP JUMPDEST DUP1 PUSH4 0x227BA66F EQ PUSH2 0x7F JUMPI DUP1 PUSH4 0x2498FFA7 EQ PUSH2 0x89 JUMPI DUP1 PUSH4 0x2CB777A6 EQ PUSH2 0x93 JUMPI JUMPDEST PUSH0 DUP1 REVERT JUMPDEST PUSH2 0x87 PUSH2 0x113 JUMP JUMPDEST STOP JUMPDEST PUSH2 0x91 PUSH2 0x12C JUMP JUMPDEST STOP JUMPDEST PUSH2 0x9B PUSH2 0x165 JUMP JUMPDEST PUSH1 0x40 MLOAD PUSH2 0xA8 SWAP2 SWAP1 PUSH2 0x1BB JUMP JUMPDEST PUSH1 0x40 MLOAD DUP1 SWAP2 SUB SWAP1 RETURN JUMPDEST PUSH2 0xB9 PUSH2 0x16B JUMP JUMPDEST PUSH1 0x40 MLOAD PUSH2 0xC6 SWAP2 SWAP1 PUSH2 0x1EC JUMP JUMPDEST PUSH1 0x40 MLOAD DUP1 SWAP2 SUB SWAP1 RETURN JUMPDEST PUSH2 0xE9 PUSH1 0x4 DUP1 CALLDATASIZE SUB DUP2 ADD SWAP1 PUSH2 0xE4 SWAP2 SWAP1 PUSH2 0x233 JUMP JUMPDEST PUSH2 0x170 JUMP JUMPDEST STOP JUMPDEST PUSH2 0xF3 PUSH2 0x179 JUMP JUMPDEST PUSH1 0x40 MLOAD PUSH2 0x100 SWAP2 SWAP1 PUSH2 0x279 JUMP JUMPDEST PUSH1 0x40 MLOAD DUP1 SWAP2 SUB SWAP1 RETURN JUMPDEST PUSH2 0x111 PUSH2 0x18B JUMP JUMPDEST STOP JUMPDEST PUSH1 0x2 PUSH0 DUP2 SLOAD DUP1 SWAP3 SWAP2 SWAP1 PUSH2 0x125 SWAP1 PUSH2 0x2BF JUMP JUMPDEST SWAP2 SWAP1 POP SSTORE POP JUMP JUMPDEST PUSH1 0x1 PUSH0 DUP2 DUP2 SWAP1 SLOAD SWAP1 PUSH2 0x100 EXP SWAP1 DIV PUSH1 0xFF AND DUP1 SWAP3 SWAP2 SWAP1 PUSH2 0x14A SWAP1 PUSH2 0x306 JUMP JUMPDEST SWAP2 SWAP1 PUSH2 0x100 EXP DUP2 SLOAD DUP2 PUSH1 0xFF MUL NOT AND SWAP1 DUP4 PUSH1 0xFF AND MUL OR SWAP1 SSTORE POP POP JUMP JUMPDEST PUSH1 0x2 SLOAD DUP2 JUMP JUMPDEST PUSH0 SLOAD DUP2 JUMP JUMPDEST DUP1 PUSH0 DUP2 SWAP1 SSTORE POP POP JUMP JUMPDEST PUSH1 0x1 PUSH0 SWAP1 SLOAD SWAP1 PUSH2 0x100 EXP SWAP1 DIV PUSH1 0xFF AND DUP2 JUMP JUMPDEST PUSH0 DUP1 DUP2 SLOAD DUP1 SWAP3 SWAP2 SWAP1 PUSH2 0x19C SWAP1 PUSH2 0x32E JUMP JUMPDEST SWAP2 SWAP1 POP SSTORE POP JUMP JUMPDEST PUSH0 DUP2 SWAP1 POP SWAP2 SWAP1 POP JUMP JUMPDEST PUSH2 0x1B5 DUP2 PUSH2 0x1A3 JUMP JUMPDEST DUP3 MSTORE POP POP JUMP JUMPDEST PUSH0 PUSH1 0x20 DUP3 ADD SWAP1 POP PUSH2 0x1CE PUSH0 DUP4 ADD DUP5 PUSH2 0x1AC JUMP JUMPDEST SWAP3 SWAP2 POP POP JUMP JUMPDEST PUSH0 DUP2 SWAP1 POP SWAP2 SWAP1 POP JUMP JUMPDEST PUSH2 0x1E6 DUP2 PUSH2 0x1D4 JUMP JUMPDEST DUP3 MSTORE POP POP JUMP JUMPDEST PUSH0 PUSH1 0x20 DUP3 ADD SWAP1 POP PUSH2 0x1FF PUSH0 DUP4 ADD DUP5 PUSH2 0x1DD JUMP JUMPDEST SWAP3 SWAP2 POP POP JUMP JUMPDEST PUSH0 DUP1 REVERT JUMPDEST PUSH2 0x212 DUP2 PUSH2 0x1D4 JUMP JUMPDEST DUP2 EQ PUSH2 0x21C JUMPI PUSH0 DUP1 REVERT JUMPDEST POP JUMP JUMPDEST PUSH0 DUP2 CALLDATALOAD SWAP1 POP PUSH2 0x22D DUP2 PUSH2 0x209 JUMP JUMPDEST SWAP3 SWAP2 POP POP JUMP JUMPDEST PUSH0 PUSH1 0x20 DUP3 DUP5 SUB SLT ISZERO PUSH2 0x248 JUMPI PUSH2 0x247 PUSH2 0x205 JUMP JUMPDEST JUMPDEST PUSH0 PUSH2 0x255 DUP5 DUP3 DUP6 ADD PUSH2 0x21F JUMP JUMPDEST SWAP2 POP POP SWAP3 SWAP2 POP POP JUMP JUMPDEST PUSH0 PUSH1 0xFF DUP3 AND SWAP1 POP SWAP2 SWAP1 POP JUMP JUMPDEST PUSH2 0x273 DUP2 PUSH2 0x25E JUMP JUMPDEST DUP3 MSTORE POP POP JUMP JUMPDEST PUSH0 PUSH1 0x20 DUP3 ADD SWAP1 POP PUSH2 0x28C PUSH0 DUP4 ADD DUP5 PUSH2 0x26A JUMP JUMPDEST SWAP3 SWAP2 POP POP JUMP JUMPDEST PUSH32 0x4E487B7100000000000000000000000000000000000000000000000000000000 PUSH0 MSTORE PUSH1 0x11 PUSH1 0x4 MSTORE PUSH1 0x24 PUSH0 REVERT JUMPDEST PUSH0 PUSH2 0x2C9 DUP3 PUSH2 0x1A3 JUMP JUMPDEST SWAP2 POP PUSH32 0x7FFFFFFFFFFFFFFFFFFFFFFFFFFFFFFFFFFFFFFFFFFFFFFFFFFFFFFFFFFFFFFF DUP3 SUB PUSH2 0x2FB JUMPI PUSH2 0x2FA PUSH2 0x292 JUMP JUMPDEST JUMPDEST PUSH1 0x1 DUP3 ADD SWAP1 POP SWAP2 SWAP1 POP JUMP JUMPDEST PUSH0 PUSH2 0x310 DUP3 PUSH2 0x25E JUMP JUMPDEST SWAP2 POP PUSH1 0xFF DUP3 SUB PUSH2 0x323 JUMPI PUSH2 0x322 PUSH2 0x292 JUMP JUMPDEST JUMPDEST PUSH1 0x1 DUP3 ADD SWAP1 POP SWAP2 SWAP1 POP JUMP JUMPDEST PUSH0 PUSH2 0x338 DUP3 PUSH2 0x1D4 JUMP JUMPDEST SWAP2 POP PUSH0 DUP3 SUB PUSH2 0x34A JUMPI PUSH2 0x349 PUSH2 0x292 JUMP JUMPDEST JUMPDEST PUSH1 0x1 DUP3 SUB SWAP1 POP SWAP2 SWAP1 POP JUMP INVALID LOG2 PUSH5 0x6970667358 0x22 SLT KECCAK256 0xA5 SHL 0xCB 0xF7 SWAP4 PUSH9 0x143BAD18902D69E43A KECCAK256 DUP9 SUB 0xE9 DUP11 0xCD MUL 0xE KECCAK256 CALLDATASIZE 0xD6 0xA6 0xAB 0x21 DUP4 PUSH3 0x8D6473 PUSH16 0x6C634300081A00330000000000000000 "
				},
				"gasEstimates": {
					"creation": {
						"codeDepositCost": "181400",
						"executionCost": "46596",
						"totalCost": "227996"
					},
					"external": {
						"decmyInt256()": "24562",
						"incInt8()": "26718",
						"incmyInt()": "24498",
						"myInt()": "2470",
						"myInt256()": "2424",
						"myInt8()": "2510",
						"setInt256(uint256)": "22536"
					}
				},
				"methodIdentifiers": {
					"decmyInt256()": "d5bd52b7",
					"incInt8()": "2498ffa7",
					"incmyInt()": "227ba66f",
					"myInt()": "2cb777a6",
					"myInt256()": "377172b9",
					"myInt8()": "6e92c39e",
					"setInt256(uint256)": "4998f0dd"
				}
			},
			"storageLayout": {
				"storage": [
					{
						"astId": 3,
						"contract": "contracts/exam_unit.sol:Unit",
						"label": "myInt256",
						"offset": 0,
						"slot": "0",
						"type": "t_uint256"
					},
					{
						"astId": 6,
						"contract": "contracts/exam_unit.sol:Unit",
						"label": "myInt8",
						"offset": 0,
						"slot": "1",
						"type": "t_uint8"
					},
					{
						"astId": 10,
						"contract": "contracts/exam_unit.sol:Unit",
						"label": "myInt",
						"offset": 0,
						"slot": "2",
						"type": "t_int256"
					}
				],
				"types": {
					"t_int256": {
						"encoding": "inplace",
						"label": "int256",
						"numberOfBytes": "32"
					},
					"t_uint256": {
						"encoding": "inplace",
						"label": "uint256",
						"numberOfBytes": "32"
					},
					"t_uint8": {
						"encoding": "inplace",
						"label": "uint8",
						"numberOfBytes": "1"
					}
				}
			},
			"userdoc": {
				"kind": "user",
				"methods": {},
				"version": 1
			}
		}
	}
}